{
  "contractName": "DRepo",
  "abi": [
    {
      "inputs": [
        {
          "internalType": "address",
          "name": "",
          "type": "address"
        }
      ],
      "name": "isRegistered",
      "outputs": [
        {
          "internalType": "bool",
          "name": "",
          "type": "bool"
        }
      ],
      "stateMutability": "view",
      "type": "function",
      "constant": true
    },
    {
      "inputs": [
        {
          "internalType": "string",
          "name": "",
          "type": "string"
        }
      ],
      "name": "profileNameMap",
      "outputs": [
        {
          "internalType": "address",
          "name": "",
          "type": "address"
        }
      ],
      "stateMutability": "view",
      "type": "function",
      "constant": true
    },
    {
      "inputs": [
        {
          "internalType": "address",
          "name": "",
          "type": "address"
        }
      ],
      "name": "profileNameToAddr",
      "outputs": [
        {
          "internalType": "string",
          "name": "",
          "type": "string"
        }
      ],
      "stateMutability": "view",
      "type": "function",
      "constant": true
    },
    {
      "inputs": [
        {
          "internalType": "string",
          "name": "",
          "type": "string"
        },
        {
          "internalType": "uint256",
          "name": "",
          "type": "uint256"
        }
      ],
      "name": "projectCommits",
      "outputs": [
        {
          "internalType": "string",
          "name": "CommitMsg",
          "type": "string"
        },
        {
          "internalType": "string",
          "name": "ipfsURI",
          "type": "string"
        }
      ],
      "stateMutability": "view",
      "type": "function",
      "constant": true
    },
    {
      "inputs": [
        {
          "internalType": "address",
          "name": "",
          "type": "address"
        },
        {
          "internalType": "uint256",
          "name": "",
          "type": "uint256"
        }
      ],
      "name": "userProjects",
      "outputs": [
        {
          "internalType": "string",
          "name": "",
          "type": "string"
        }
      ],
      "stateMutability": "view",
      "type": "function",
      "constant": true
    },
    {
      "inputs": [
        {
          "internalType": "string",
          "name": "profileName",
          "type": "string"
        }
      ],
      "name": "registerUser",
      "outputs": [],
      "stateMutability": "nonpayable",
      "type": "function"
    },
    {
      "inputs": [],
      "name": "authenticateUser",
      "outputs": [
        {
          "internalType": "bool",
          "name": "",
          "type": "bool"
        }
      ],
      "stateMutability": "view",
      "type": "function",
      "constant": true
    },
    {
      "inputs": [
        {
          "internalType": "string",
          "name": "profileName",
          "type": "string"
        }
      ],
      "name": "isOwner",
      "outputs": [
        {
          "internalType": "bool",
          "name": "",
          "type": "bool"
        }
      ],
      "stateMutability": "view",
      "type": "function",
      "constant": true
    },
    {
      "inputs": [],
      "name": "getProfileName",
      "outputs": [
        {
          "internalType": "string",
          "name": "",
          "type": "string"
        }
      ],
      "stateMutability": "view",
      "type": "function",
      "constant": true
    },
    {
      "inputs": [
        {
          "internalType": "string",
          "name": "project_name",
          "type": "string"
        }
      ],
      "name": "CreateProject",
      "outputs": [],
      "stateMutability": "nonpayable",
      "type": "function"
    },
    {
      "inputs": [
        {
          "internalType": "string",
          "name": "profilename",
          "type": "string"
        }
      ],
      "name": "getAllRepositories",
      "outputs": [
        {
          "internalType": "string[]",
          "name": "",
          "type": "string[]"
        }
      ],
      "stateMutability": "view",
      "type": "function",
      "constant": true
    },
    {
      "inputs": [
        {
          "internalType": "string",
          "name": "project_name",
          "type": "string"
        },
        {
          "internalType": "string",
          "name": "commitMsg",
          "type": "string"
        },
        {
          "internalType": "string",
          "name": "ipfsURI",
          "type": "string"
        }
      ],
      "name": "commit",
      "outputs": [],
      "stateMutability": "nonpayable",
      "type": "function"
    },
    {
      "inputs": [
        {
          "internalType": "string",
          "name": "project_name",
          "type": "string"
        }
      ],
      "name": "getAllCommits",
      "outputs": [
        {
          "components": [
            {
              "internalType": "string",
              "name": "CommitMsg",
              "type": "string"
            },
            {
              "internalType": "string",
              "name": "ipfsURI",
              "type": "string"
            }
          ],
          "internalType": "struct DRepo.Commit[]",
          "name": "",
          "type": "tuple[]"
        }
      ],
      "stateMutability": "view",
      "type": "function",
      "constant": true
    }
  ],
  "bytecode": "0x608060405234801561001057600080fd5b506118c8806100206000396000f3fe608060405234801561001057600080fd5b50600436106100ce5760003560e01c8063704f1b941161008c578063b85e943d11610066578063b85e943d1461024c578063c1c57ced1461027c578063c3c5a54714610298578063fadd4066146102c8576100ce565b8063704f1b94146101cf578063960ce675146101eb5780639cf896621461021b576100ce565b80625ce66f146100d35780630132e822146100f157806301a33423146101215780632fa9c007146101515780633b6c4fd91461018157806361dce8b1146101b1575b600080fd5b6100db6102e4565b6040516100e89190610f0c565b60405180910390f35b61010b60048036038101906101069190611081565b610337565b6040516101189190611258565b60405180910390f35b61013b60048036038101906101369190611081565b6104d8565b60405161014891906112bb565b60405180910390f35b61016b60048036038101906101669190611338565b610521565b60405161017891906113c2565b60405180910390f35b61019b60048036038101906101969190611081565b6105da565b6040516101a891906114a6565b60405180910390f35b6101b96107a5565b6040516101c691906113c2565b60405180910390f35b6101e960048036038101906101e49190611081565b610874565b005b610205600480360381019061020091906114c8565b610a4f565b60405161021291906113c2565b60405180910390f35b610235600480360381019061023091906114f5565b610aef565b604051610243929190611551565b60405180910390f35b61026660048036038101906102619190611081565b610c56565b6040516102739190610f0c565b60405180910390f35b61029660048036038101906102919190611588565b610cd1565b005b6102b260048036038101906102ad91906114c8565b610d6e565b6040516102bf9190610f0c565b60405180910390f35b6102e260048036038101906102dd9190611081565b610d8e565b005b60008060003373ffffffffffffffffffffffffffffffffffffffff1673ffffffffffffffffffffffffffffffffffffffff16815260200190815260200160002060009054906101000a900460ff16905090565b6060600482604051610349919061166b565b9081526020016040518091039020805480602002602001604051908101604052809291908181526020016000905b828210156104cd57838290600052602060002090600202016040518060400160405290816000820180546103aa906116b1565b80601f01602080910402602001604051908101604052809291908181526020018280546103d6906116b1565b80156104235780601f106103f857610100808354040283529160200191610423565b820191906000526020600020905b81548152906001019060200180831161040657829003601f168201915b5050505050815260200160018201805461043c906116b1565b80601f0160208091040260200160405190810160405280929190818152602001828054610468906116b1565b80156104b55780601f1061048a576101008083540402835291602001916104b5565b820191906000526020600020905b81548152906001019060200180831161049857829003601f168201915b50505050508152505081526020019060010190610377565b505050509050919050565b6001818051602081018201805184825260208301602085012081835280955050505050506000915054906101000a900473ffffffffffffffffffffffffffffffffffffffff1681565b6003602052816000526040600020818154811061053d57600080fd5b90600052602060002001600091509150508054610559906116b1565b80601f0160208091040260200160405190810160405280929190818152602001828054610585906116b1565b80156105d25780601f106105a7576101008083540402835291602001916105d2565b820191906000526020600020905b8154815290600101906020018083116105b557829003601f168201915b505050505081565b606060006001836040516105ee919061166b565b908152602001604051809103902060009054906101000a900473ffffffffffffffffffffffffffffffffffffffff169050600073ffffffffffffffffffffffffffffffffffffffff168173ffffffffffffffffffffffffffffffffffffffff160361068e576040517f08c379a00000000000000000000000000000000000000000000000000000000081526004016106859061172e565b60405180910390fd5b600360008273ffffffffffffffffffffffffffffffffffffffff1673ffffffffffffffffffffffffffffffffffffffff168152602001908152602001600020805480602002602001604051908101604052809291908181526020016000905b8282101561079957838290600052602060002001805461070c906116b1565b80601f0160208091040260200160405190810160405280929190818152602001828054610738906116b1565b80156107855780601f1061075a57610100808354040283529160200191610785565b820191906000526020600020905b81548152906001019060200180831161076857829003601f168201915b5050505050815260200190600101906106ed565b50505050915050919050565b6060600260003373ffffffffffffffffffffffffffffffffffffffff1673ffffffffffffffffffffffffffffffffffffffff16815260200190815260200160002080546107f1906116b1565b80601f016020809104026020016040519081016040528092919081815260200182805461081d906116b1565b801561086a5780601f1061083f5761010080835404028352916020019161086a565b820191906000526020600020905b81548152906001019060200180831161084d57829003601f168201915b5050505050905090565b6000803373ffffffffffffffffffffffffffffffffffffffff1673ffffffffffffffffffffffffffffffffffffffff16815260200190815260200160002060009054906101000a900460ff1615610900576040517f08c379a00000000000000000000000000000000000000000000000000000000081526004016108f79061179a565b60405180910390fd5b6000815111610944576040517f08c379a000000000000000000000000000000000000000000000000000000000815260040161093b90611806565b60405180910390fd5b60016000803373ffffffffffffffffffffffffffffffffffffffff1673ffffffffffffffffffffffffffffffffffffffff16815260200190815260200160002060006101000a81548160ff021916908315150217905550336001826040516109ac919061166b565b908152602001604051809103902060006101000a81548173ffffffffffffffffffffffffffffffffffffffff021916908373ffffffffffffffffffffffffffffffffffffffff16021790555080600260003373ffffffffffffffffffffffffffffffffffffffff1673ffffffffffffffffffffffffffffffffffffffff1681526020019081526020016000209080519060200190610a4b929190610e4e565b5050565b60026020528060005260406000206000915090508054610a6e906116b1565b80601f0160208091040260200160405190810160405280929190818152602001828054610a9a906116b1565b8015610ae75780601f10610abc57610100808354040283529160200191610ae7565b820191906000526020600020905b815481529060010190602001808311610aca57829003601f168201915b505050505081565b6004828051602081018201805184825260208301602085012081835280955050505050508181548110610b2157600080fd5b906000526020600020906002020160009150915050806000018054610b45906116b1565b80601f0160208091040260200160405190810160405280929190818152602001828054610b71906116b1565b8015610bbe5780601f10610b9357610100808354040283529160200191610bbe565b820191906000526020600020905b815481529060010190602001808311610ba157829003601f168201915b505050505090806001018054610bd3906116b1565b80601f0160208091040260200160405190810160405280929190818152602001828054610bff906116b1565b8015610c4c5780601f10610c2157610100808354040283529160200191610c4c565b820191906000526020600020905b815481529060010190602001808311610c2f57829003601f168201915b5050505050905082565b600080600183604051610c69919061166b565b908152602001604051809103902060009054906101000a900473ffffffffffffffffffffffffffffffffffffffff1690503373ffffffffffffffffffffffffffffffffffffffff168173ffffffffffffffffffffffffffffffffffffffff1614915050919050565b600483604051610ce1919061166b565b908152602001604051809103902060405180604001604052808481526020018381525090806001815401808255809150506001900390600052602060002090600202016000909190919091506000820151816000019080519060200190610d49929190610e4e565b506020820151816001019080519060200190610d66929190610e4e565b505050505050565b60006020528060005260406000206000915054906101000a900460ff1681565b6000815111610dd2576040517f08c379a0000000000000000000000000000000000000000000000000000000008152600401610dc990611872565b60405180910390fd5b600360003373ffffffffffffffffffffffffffffffffffffffff1673ffffffffffffffffffffffffffffffffffffffff16815260200190815260200160002081908060018154018082558091505060019003906000526020600020016000909190919091509080519060200190610e4a929190610e4e565b5050565b828054610e5a906116b1565b90600052602060002090601f016020900481019282610e7c5760008555610ec3565b82601f10610e9557805160ff1916838001178555610ec3565b82800160010185558215610ec3579182015b82811115610ec2578251825591602001919060010190610ea7565b5b509050610ed09190610ed4565b5090565b5b80821115610eed576000816000905550600101610ed5565b5090565b60008115159050919050565b610f0681610ef1565b82525050565b6000602082019050610f216000830184610efd565b92915050565b6000604051905090565b600080fd5b600080fd5b600080fd5b600080fd5b6000601f19601f8301169050919050565b7f4e487b7100000000000000000000000000000000000000000000000000000000600052604160045260246000fd5b610f8e82610f45565b810181811067ffffffffffffffff82111715610fad57610fac610f56565b5b80604052505050565b6000610fc0610f27565b9050610fcc8282610f85565b919050565b600067ffffffffffffffff821115610fec57610feb610f56565b5b610ff582610f45565b9050602081019050919050565b82818337600083830152505050565b600061102461101f84610fd1565b610fb6565b9050828152602081018484840111156110405761103f610f40565b5b61104b848285611002565b509392505050565b600082601f83011261106857611067610f3b565b5b8135611078848260208601611011565b91505092915050565b60006020828403121561109757611096610f31565b5b600082013567ffffffffffffffff8111156110b5576110b4610f36565b5b6110c184828501611053565b91505092915050565b600081519050919050565b600082825260208201905092915050565b6000819050602082019050919050565b600081519050919050565b600082825260208201905092915050565b60005b83811015611130578082015181840152602081019050611115565b8381111561113f576000848401525b50505050565b6000611150826110f6565b61115a8185611101565b935061116a818560208601611112565b61117381610f45565b840191505092915050565b6000604083016000830151848203600086015261119b8282611145565b915050602083015184820360208601526111b58282611145565b9150508091505092915050565b60006111ce838361117e565b905092915050565b6000602082019050919050565b60006111ee826110ca565b6111f881856110d5565b93508360208202850161120a856110e6565b8060005b85811015611246578484038952815161122785826111c2565b9450611232836111d6565b925060208a0199505060018101905061120e565b50829750879550505050505092915050565b6000602082019050818103600083015261127281846111e3565b905092915050565b600073ffffffffffffffffffffffffffffffffffffffff82169050919050565b60006112a58261127a565b9050919050565b6112b58161129a565b82525050565b60006020820190506112d060008301846112ac565b92915050565b6112df8161129a565b81146112ea57600080fd5b50565b6000813590506112fc816112d6565b92915050565b6000819050919050565b61131581611302565b811461132057600080fd5b50565b6000813590506113328161130c565b92915050565b6000806040838503121561134f5761134e610f31565b5b600061135d858286016112ed565b925050602061136e85828601611323565b9150509250929050565b600082825260208201905092915050565b6000611394826110f6565b61139e8185611378565b93506113ae818560208601611112565b6113b781610f45565b840191505092915050565b600060208201905081810360008301526113dc8184611389565b905092915050565b600081519050919050565b600082825260208201905092915050565b6000819050602082019050919050565b600061141c8383611145565b905092915050565b6000602082019050919050565b600061143c826113e4565b61144681856113ef565b93508360208202850161145885611400565b8060005b8581101561149457848403895281516114758582611410565b945061148083611424565b925060208a0199505060018101905061145c565b50829750879550505050505092915050565b600060208201905081810360008301526114c08184611431565b905092915050565b6000602082840312156114de576114dd610f31565b5b60006114ec848285016112ed565b91505092915050565b6000806040838503121561150c5761150b610f31565b5b600083013567ffffffffffffffff81111561152a57611529610f36565b5b61153685828601611053565b925050602061154785828601611323565b9150509250929050565b6000604082019050818103600083015261156b8185611389565b9050818103602083015261157f8184611389565b90509392505050565b6000806000606084860312156115a1576115a0610f31565b5b600084013567ffffffffffffffff8111156115bf576115be610f36565b5b6115cb86828701611053565b935050602084013567ffffffffffffffff8111156115ec576115eb610f36565b5b6115f886828701611053565b925050604084013567ffffffffffffffff81111561161957611618610f36565b5b61162586828701611053565b9150509250925092565b600081905092915050565b6000611645826110f6565b61164f818561162f565b935061165f818560208601611112565b80840191505092915050565b6000611677828461163a565b915081905092915050565b7f4e487b7100000000000000000000000000000000000000000000000000000000600052602260045260246000fd5b600060028204905060018216806116c957607f821691505b6020821081036116dc576116db611682565b5b50919050565b7f55736572206e6f7420666f756e64000000000000000000000000000000000000600082015250565b6000611718600e83611378565b9150611723826116e2565b602082019050919050565b600060208201905081810360008301526117478161170b565b9050919050565b7f5573657220616c72656164792072656769737465726564000000000000000000600082015250565b6000611784601783611378565b915061178f8261174e565b602082019050919050565b600060208201905081810360008301526117b381611777565b9050919050565b7f50726f66696c65206e616d65206d757374206e6f7420626520656d7074790000600082015250565b60006117f0601e83611378565b91506117fb826117ba565b602082019050919050565b6000602082019050818103600083015261181f816117e3565b9050919050565b7f50726f6a656374206e616d65206d757374206e6f7420626520656d7074790000600082015250565b600061185c601e83611378565b915061186782611826565b602082019050919050565b6000602082019050818103600083015261188b8161184f565b905091905056fea2646970667358221220c56bd50a7c733db1e54ebba2ca52c1ca2544e2b48da8a08ac318b4e7aabbae6b64736f6c634300080d0033",
  "immutableReferences": {},
  "source": "// SPDX-License-Identifier: MIT\r\n\r\npragma solidity >=0.7.0 <0.9.0;\r\n\r\ncontract DRepo {\r\n    mapping(address => bool) public isRegistered;\r\n    mapping(string => address) public profileNameMap;\r\n    mapping(address => string) public profileNameToAddr;\r\n\r\n    struct Commit {\r\n        string CommitMsg;\r\n        string ipfsURI;\r\n    }\r\n\r\n\r\n    mapping(address => string[]) public userProjects;\r\n    mapping(string => Commit[]) public projectCommits;\r\n\r\n    function registerUser(string memory profileName) public {\r\n        require(!isRegistered[msg.sender], \"User already registered\");\r\n\r\n        require(\r\n            bytes(profileName).length > 0,\r\n            \"Profile name must not be empty\"\r\n        );\r\n        isRegistered[msg.sender] = true;\r\n\r\n        profileNameMap[profileName] = msg.sender;\r\n        profileNameToAddr[msg.sender] = profileName;\r\n        \r\n    }\r\n\r\n    function authenticateUser() public view returns (bool) {\r\n        return isRegistered[msg.sender];\r\n        \r\n    }\r\n\r\n    function isOwner(string memory profileName) public view returns (bool) {\r\n        address userAddress = profileNameMap[profileName];\r\n        return userAddress == msg.sender;\r\n    }\r\n\r\n\r\n    function getProfileName() public view returns (string memory) {\r\n        return profileNameToAddr[msg.sender];\r\n    }\r\n\r\n    function CreateProject(string memory project_name) public  {\r\n        require(\r\n            bytes(project_name).length > 0,\r\n            \"Project name must not be empty\"\r\n        );\r\n        userProjects[msg.sender].push(project_name);\r\n        \r\n    }\r\n\r\n    function getAllRepositories(string memory profilename)\r\n        public\r\n        view\r\n        returns (string[] memory)\r\n    {\r\n        address userAddress = profileNameMap[profilename];\r\n        require(userAddress != address(0), \"User not found\");\r\n        // address(0) means not a etherium address,\r\n        return userProjects[userAddress];\r\n    }\r\n\r\n    function commit(\r\n        string memory project_name,\r\n        string memory commitMsg,\r\n        string memory ipfsURI\r\n    ) public  {\r\n        projectCommits[project_name].push(Commit(commitMsg, ipfsURI));\r\n    }\r\n\r\n    function getAllCommits(string memory project_name)\r\n        public\r\n        view\r\n        returns (Commit[] memory)\r\n    {\r\n        return projectCommits[project_name];\r\n    }\r\n    \r\n}",
  "sourcePath": "C:\\Users\\aniav\\Desktop\\TDOC Project\\DeRepo-Project\\contracts\\DRepo.sol",
  "compiler": {
    "name": "solc",
    "version": "0.8.13+commit.abaa5c0e.Emscripten.clang"
  },
  "schemaVersion": "3.4.16",
  "updatedAt": "2023-12-26T05:35:14.121Z",
  "networkType": "ethereum",
  "devdoc": {
    "kind": "dev",
    "methods": {},
    "version": 1
  },
  "userdoc": {
    "kind": "user",
    "methods": {},
    "version": 1
  }
}